:020000040000FA
:10000000505400209D010000A5010000A701000040
:1000100000000000000000000000000000000000E0
:10002000000000000000000000000000A901000026
:100030000000000000000000AB010000AD01000066
:10004000AF010000B1010000B3010000B5010000E4
:10005000B7010000C1070000A91A0000ED1A000056
:10006000BF010000C1010000C3010000C501000084
:10007000C7010000C9010000CB01000049160000C3
:10008000CF010000D1010000D3010000D501000024
:10009000D7010000D9010000DB010000DD010000F4
:1000A000DF0100000000000000000000E10100008E
:1000B000E3010000E5010000E7010000E9010000A4
:1000C00000F002F800F03EF80CA030C80838241800
:1000D0002D18671EA246AB4654465D46AC4201D180
:1000E00000F030F87E460F3EB6460FCC0126334274
:1000F00000D0FB1A3343A246AB4618479C4F000082
:10010000DC4F0000103A02D378C878C1FAD8520701
:1001100001D330C830C101D504680C6070470000BD
:100120000023002400250026103A01D378C1FBD813
:10013000520700D330C100D50B6070471FB51FBDFB
:1001400010B510BD00F0E4F91146FFF7F7FF02F01B
:10015000D1FD00F0FCF903B4FFF7F2FF03BC00F09F
:1001600003FA000070B505460C46164602E00FCCB7
:100170000FC5103E102EFAD2082E02D303CC03C5B1
:10018000083E042E07D301CC01C5361F03E02178B9
:100190002970641C6D1C761EF9D270BD164880470C
:1001A00016480047FEE7FEE7FEE7FEE7FEE7FEE74C
:1001B000FEE7FEE7FEE7FEE7FEE7FEE7FEE7FEE717
:1001C000FEE7FEE7FEE7FEE7FEE7FEE7FEE7FEE707
:1001D000FEE7FEE7FEE7FEE7FEE7FEE7FEE7FEE7F7
:1001E000FEE7FEE7FEE7FEE7FEE7000004480549FC
:1001F000054A064B70470000DD150000C1000000F5
:10020000500410205054002050141020504400205E
:10021000F8B5042A2CD3830712D00B78491C03703D
:10022000401C521E83070BD00B78491C0370401CE6
:10023000521E830704D00B78491C0370401C521EC9
:100240008B079B0F05D0C91ADF002023DE1B08C9CE
:100250000AE0FFF787FFF8BD1D4608C9FD401C46B0
:10026000B4402C4310C0121F042AF5D2F308C91A57
:10027000521EF0D40B78491C0370401C521EEAD465
:100280000B78491C0370401C012AE4D409780170E2
:10029000F8BD01E004C0091F0429FBD28B0701D57A
:1002A0000280801CC90700D00270704700290BD063
:1002B000C30702D00270401C491E022904D38307E1
:1002C00002D50280801C891EE3E70022EEE70022AF
:1002D000DFE70000F8B507460B46394619438907A2
:1002E00013D1164CE601042A0FD302CB0D1B8D430C
:1002F000354202D102C0121FF5E7CBB20370401C99
:10030000521E002B13D0090AF7E7002A14D01978DF
:10031000521E5B1C0170401C002908D0002A0BD023
:100320001978521E5B1C0170401C0029EDD1002A77
:1003300002D01146FFF7C9FF3846F8BD010101019F
:10034000002203098B422CD3030A8B4211D30023D2
:100350009C464EE003460B433CD4002243088B42AC
:1003600031D303098B421CD3030A8B4201D3944639
:100370003FE0C3098B4201D3CB01C01A524183092C
:100380008B4201D38B01C01A524143098B4201D3E6
:100390004B01C01A524103098B4201D30B01C01A11
:1003A0005241C3088B4201D3CB00C01A524183088B
:1003B0008B4201D38B00C01A524143088B4201D3B8
:1003C0004B00C01A5241411A00D201465241104618
:1003D00070475DE0CA0F00D04942031000D340428D
:1003E00053409C46002203098B422DD3030A8B42C3
:1003F00012D38901FC2212BA030A8B420CD3890161
:1004000092118B4208D3890192118B4204D3890146
:100410003AD0921100E08909C3098B4201D3CB0184
:10042000C01A524183098B4201D38B01C01A524139
:1004300043098B4201D34B01C01A524103098B423D
:1004400001D30B01C01A5241C3088B4201D3CB0028
:10045000C01A524183088B4201D38B00C01A52410B
:10046000D9D243088B4201D34B00C01A5241411AE2
:1004700000D201465241104663465B1001D3404210
:10048000002B00D54942704763465B1000D34042C1
:1004900001B50549002802DC491C084000E0084677
:1004A000C046C04602BD00BFFFFFFF7F70477047D8
:1004B00070471F22030C02D10F2200041CD0030E30
:1004C00001D10002083A030F01D10001121F830F6E
:1004D00001D18000921E002801DB4000521ED2058F
:1004E0005118021251181922904004D3491C0028B7
:1004F00001D14908490008467047C10FC90700D01B
:100500004042012292071143D3E701218907D0E736
:10051000754600F025F8AE46050069465346C0080A
:10052000C000854618B020B5FFF760FE60BCB64637
:1005300000260027C0C5C0C5C0C5C0C5C0C5C0C550
:10054000C0C5C0C5403D490849008D46704710B53B
:100550000446C046C0462046FFF7FDFD10BD000022
:1005600000487047E800002001491820ABBEFEE7B4
:1005700026000200704730B58C180278401C130723
:100580001B0F01D10378401C120906D10278401CD0
:1005900003E00578401C0D70491C5B1EF9D101E099
:1005A0000B70491C521EFBD1A142E6D3002030BD86
:1005B00082B001AA1070684601700078002807D048
:1005C000FFE701A8017801208840E849086006E0BB
:1005D00001A80178012088403A490860FFE702B08D
:1005E0007047C04682B0019000910198007A0328BC
:1005F00005D1FFE7019800680099086009E0019AB9
:1006000010685169491E127A91404018009908609B
:10061000FFE70198007C042806D1FFE701984068B5
:100620000C300099486014E00198407A032805D105
:10063000FFE7019840680099486009E0019A506816
:100640005169491E527A9140401800994860FFE76D
:10065000FFE70199487A8007CA6810430A7A920630
:1006600010430A6A1043CA6910438A6910434A69F1
:100670001201103A1043097C08430099886002B0C7
:100680007047000010B5B74B00201860B3490860F0
:100690000B490860C043B449086046490860094AEC
:1006A0001060B44A1060B44A1060434C01222260CA
:1006B0001A600860AD490860052001F065FB10BDB7
:1006C000148002402C80024084B002AA107001A85D
:1006D00001700078401E0090072861D800988100C2
:1006E00001A040588746C0460907000017070000D0
:1006F000290700003D0700005107000065070000C2
:10070000790700008D0700002C480068012108408F
:1007100003A9087048E028480068012108404142C8
:10072000484103A908703FE09048006802A9097891
:10073000C8400121084003A9087035E01D48006841
:1007400002A90978C8400121084003A908702BE0DC
:100750001748006802A90978C8400121084003A988
:10076000087021E08048006802A90978C84001218A
:10077000084003A9087017E07D48006802A90978BD
:10078000C8400121084003A908700DE07B480068BB
:1007900002A90978C8400121084003A9087003E0B4
:1007A00003A900200870FFE703A8007804B0704791
:1007B00010800240208002404C80024000800240B5
:1007C00080B584B001200321FFF77EFF002820D1EF
:1007D000FFE7244880690F2809D1FFE721480390EB
:1007E00000F0E0F8039900208861086710E01D49D7
:1007F00002910A461432D369D068C018D060087DCF
:10080000403100F033F802998869401C8861FFE7A5
:10081000FFE703210846FFF757FF00281FD1FFE736
:10082000114880690F2808D1FFE70F48019000F0B8
:10083000B9F801990020886110E00B4900910A463F
:100840001432D369D068C018D060087D403100F000
:100850000DF800998869401C8861FFE7FFE704B044
:1008600080BDC0465C430020D443002080B584B0E6
:1008700003AA10700291384838490860029800684D
:1008800000280AD0FFE70298006803A909780A0146
:1008900031498918FFF7A6FEFFE702984068002853
:1008A0000DD0FFE72E48006803A909780901401818
:1008B0000190029840680199FFF794FEFFE70298C3
:1008C000806801210843274908600298407B01287D
:1008D00007D1FFE703A8017801208840224908607A
:1008E00006E003A80178012088405C490860FFE722
:1008F00003A90B78012002469A40574B1A600978E9
:1009000088401A4908600298807B002807D1FFE7D9
:1009100003A80178012088401649086006E003A872
:1009200001780120884012490860FFE70298007BA7
:10093000012807D1FFE703A80178012088400F496B
:10094000086006E003A80178012088400A49086091
:10095000FFE704B080BDC0460000102008800240C0
:100960000C8002400480024018800240288002402F
:1009700030800240348002403C8002403880024097
:1009800081B00090009900200860009948600099AB
:10099000886000990873009948730099887301B0C2
:1009A0007047000080B584B0039003984030FFF793
:1009B000E7FF03990868C8610399C86E0862039A43
:1009C0000121019188021063039A24230320D0544B
:1009D000039A25230020D054039A9062039A50630F
:1009E000039B8A049A63039B4A05DA63039A2C23C8
:1009F000D154039B1A461C321A64039A4C23D154D7
:100A000003994D22885403994E2288540399087DF6
:100A10004031FFF72BFF019A0398017D1046884073
:100A20000D4908600398017D104688400B49086015
:100A300003980068114601F0D7F801990398007DEA
:100A4000FFF7B6FD01990520029001F0F7F9029831
:100A500001F0CAF904B080BD248002401C8002402D
:100A600083B00290029908784A7810438978090384
:100A7000401801900298817A0198084301900299E8
:100A8000C8780A79120110434A79120210438A7910
:100A900012031043CA79120410430A7A1205104354
:100AA000497A0906084300900098034908600198B4
:100AB0000249086003B0704750000F4054000F40D7
:100AC00084B0009101460098039102A90870039A2E
:100AD000107880035378DB02184393781B02184385
:100AE000D3785B001843127910430190019809787C
:100AF0008900024A885004B07047C04658000F4031
:100B000081B0009000990020C87000998870009909
:100B10004870009908700099087101B0704781B061
:100B20000090009900200870009948700099887022
:100B30000099C870009908710099487100998871EE
:100B40000099C871009908720099487200998872DA
:100B50000099C87201B0704710B58EB00D900C911D
:100B60000D9840680B900D9880680A900D98C068A9
:100B700009900D98006908900D98406907900D98AC
:100B8000806906900D98C0690590002003900120AF
:100B9000029003200190424800900C980088049035
:100BA000FFE70498002863D0FFE704A80078C00797
:100BB00000284CD0FFE70B98029988430C9989785C
:100BC000039A914008430B900A98019988430C9925
:100BD000097A039A5200914008430A9009980299B1
:100BE00088430C99897A039A9140084309900898A0
:100BF000009988430C99CB78039A14461034A3408B
:100C00001843097991400843089007980099884350
:100C10000C994B79039A14461034A34018438979F0
:100C20009140084307900698019988430C99497AA6
:100C3000039A520091400843069005980299884310
:100C40000C99C979039A914008430590FFE70298EF
:100C500040000290019880000190009840000090B0
:100C60000398401C0390FFE704984008049098E71D
:100C70000B980D9948600A980D99886009980D990C
:100C8000C86008980D99086107980D994861069801
:100C90000D99886105980D99C8610EB010BDC046C8
:100CA0000100010082B00190009100980199486212
:100CB00002B0704782B001900091009801990862DB
:100CC00002B0704781B0009000990B4808800099ED
:100CD000002088700099C8700099087100994871C7
:100CE000009988710099C87100990872009948723A
:100CF0000099887201B07047FFFF000083B0029036
:100D00000191684602700078002804D0FFE701983E
:100D10000299086203E0019802994862FFE703B074
:100D20007047000082B0014601A801702649096899
:100D300000910078002805D0FFE7009804210843BF
:100D4000009004E00098042188430090FFE7009899
:100D5000F849086002B0704783B0024602A80270EA
:100D60000191F2490A680092009A03239A43009283
:100D7000027800981043009000980860ED480168E0
:100D8000009100990F2212029143009101990A02E9
:100D90000099114300910099016000684007002804
:100DA0000FD5FFE7E3490868009000980822104338
:100DB00000900098086000989043009000980860A8
:100DC000FFE703B07047C0460400024080B584B01E
:100DD00000200390FFE7212000F0B0F901A908707E
:100DE0000398401C0390FFE703990020490A022959
:100DF000009006D8FFE701A80078414248410090E2
:100E0000FFE70098C0070028E5D1FFE7212000F0A8
:100E100095F9002804D0FFE702A90120087003E03B
:100E200002A900200870FFE702A8007804B080BD86
:100E300082B0014601A8017000210091BB490968F8
:100E400000910078002805D0FFE7009804210843AE
:100E5000009004E00098042188430090FFE7009888
:100E6000B249086002B0704782B0014601A8017023
:100E7000AE490A680092009AF0239A4300920078E3
:100E800002010098104300900098086002B070477B
:100E900082B0014601A80180A4490A680092009A24
:100EA00003231B029A43009202880098104300908B
:100EB0000098086002B0704780B500F025FA044938
:100EC00008683F2290430860EA490248086080BDF4
:100ED00038800D400080502080B592B0119093482A
:100EE00000688007002803D5FFE79148109002E0D2
:100EF0008F481090FFE78D480068C007002804D095
:100F0000FFE7109840081090FFE710980F9087486F
:100F10000068400700280BD5FFE7864800680005F9
:100F2000000F401C059005980F9948430F90FFE76C
:100F30007E4800688005800F0390002808D0FFE7F6
:100F40000398012808D0FFE7039802281BD01FE070
:100F50001199774808601FE074480068000900078D
:100F6000002803D4FFE70F980E9008E00F98F84987
:100F700009684906490F491CC8400E90FFE70E98C2
:100F80001199086008E011990120C003086003E08E
:100F9000119969480860FFE7F04800688007002859
:100FA00003D5FFE762480D9002E061480D90FFE72E
:100FB000EA480068C007002804D0FFE70D98400801
:100FC0000D90FFE70D980C90E4480068400700285A
:100FD0000BD5FFE7DF4800680006000F401C0590B6
:100FE00005980C9948430C90FFE70C980B90DB4850
:100FF0000068C006002804D5FFE70B9840080B9056
:10100000FFE70B9811994860D648006800090490E2
:1010100004A800780007002803D4FFE7444807909D
:101020000CE0049807210840411C012088400490EE
:1010300004993F48FFF784F90790FFE70798119953
:10104000C860C8480068049004A800780007002819
:1010500003D4FFE7364806900CE0049807210840C7
:10106000411C01208840049004993148FFF768F939
:101070000690FFE7069811990861B94800680321B6
:1010800008400290002808D0FFE70298012807D006
:10109000FFE70298022806D008E010980A9008E0BE
:1010A0000D980A9005E00F980A9002E00C980A90BB
:1010B000FFE7AB4800688006800F0190002808D049
:1010C000FFE70198012808D0FFE70198022807D020
:1010D00009E00120C003099008E01748099005E0E5
:1010E0000A98099002E007980990FFE79C48006879
:1010F000000A049004A800780007002803D4FFE742
:10110000099808900CE0049807210840411C012030
:101110008840049009980499FFF712F90890FFE7B6
:1011200008981199886012B080BDC0460C0002403A
:1011300000127A0004000240409C000083B0014687
:1011400002A801700078E0210840202804D1FFE7C0
:101150000E480068019003E0464800680190FFE7F0
:10116000019802A909781F221140C840C007002831
:1011700004D0FFE769460120087003E069460020BB
:101180000870FFE76846007803B07047000002402F
:1011900082B0014601A801706F4A11680323994388
:1011A000116000780090012804D0FFE70098022821
:1011B00006D00BE06849086801221043086006E089
:1011C0006549086803221043086000E0FFE702B0A9
:1011D0007047C04680B584B000200390FFE722200E
:1011E000FFF7ACFF01A908700398401C0390FFE7CC
:1011F00003990020490A0229009006D8FFE701A8B8
:101200000078414248410090FFE70098C00700285D
:10121000E5D1FFE72220FFF791FF002804D0FFE788
:1012200002A90120087003E002A900200870FFE76E
:1012300002A8007804B080BD82B0014601A8017008
:10124000002100910B49096800910078002806D020
:10125000FFE70098012189050843009005E0009808
:101260000121890588430090FFE700980149086043
:1012700002B070473C800D4080B584B000200390E0
:10128000FFE71720FFF75AFF01A908700398401CD9
:101290000390FFE703990020490A0229009006D82D
:1012A000FFE701A80078414248410090FFE700981D
:1012B000C0070028E5D1FFE71720FFF73FFF002810
:1012C00004D0FFE702A90120087003E002A9002072
:1012D0000870FFE702A8007804B080BD82B00190DA
:1012E000684601700078002806D0FFE7019ACA49D5
:1012F00008681043086005E0019AC74908689043F0
:101300000860FFE702B0704780B5C3490F48086026
:101310000120FFF791FFFFF7AFFFC04900200860F1
:10132000BF490860BF490860BF490860BF490860FD
:10133000BF490860BF490860BF490860BF490860ED
:10134000BF490860BF49086080BDC0461000000862
:101350000C0002400400024008000240100002405D
:10136000140002401800024083B0029001A80170EE
:10137000B348006800900298224988420FD1FFE7E5
:10138000009801210906084300900098FF21884336
:10139000009001A801780098084300902DE0029881
:1013A0001949884211D1FFE70098012149060843F5
:1013B00000900098FF2109028843009001A800785E
:1013C000010200980843009016E002980F498842F5
:1013D00011D1FFE700980121890608430090009889
:1013E000FF2109048843009001A8007801040098B7
:1013F00008430090FFE7FFE7FFE700989049086087
:1014000003B070470000044000000A4000800F4015
:1014100082B00190684601700078002806D0FFE78E
:101420000199486802221043486005E00199486824
:10143000024A10404860FFE702B07047FDFF00001D
:1014400084B0009101460098039102A908700398A6
:10145000C0680978084204D0FFE701A9012008709C
:1014600003E001A900200870FFE701A8007804B09C
:10147000704783B00290019168460270007800289E
:1014800006D0FFE7019A029948691043486105E0D8
:10149000019A0299486990434861FFE703B0704799
:1014A00083B00290019101984088029908610199E6
:1014B000088800028A798018CA7980180A7A801808
:1014C0004979401800900098029908600199487A7B
:1014D00009794018009000980299486003B070475D
:1014E00082B001906846018000880199886002B04E
:1014F000704781B00090009900200871009A072180
:1015000051710099C8710099887100990872009A08
:1015100002215180009908800099487201B07047FB
:1015200080B586B03D4800688007002803D5FFE7F6
:101530002748059002E026480590FFE737480068F5
:10154000C007002804D0FFE7059840080590FFE792
:101550000598049031480068400700280BD5FFE744
:101560002F4800680005000F401C02900298049963
:1015700048430490FFE7294800688005800F0190E8
:10158000002808D0FFE70198012808D0FFE701985C
:10159000022811D015E00F490D48086015E00498A5
:1015A0001E4909680906090F491CFEF7C9FE039088
:1015B00003980849086008E006490120C003086054
:1015C00003E0044904480860FFE706B080BDC04658
:1015D00000127A0000000020409C000080B50E49F7
:1015E000102008600D49002008600D4908600D4971
:1015F00008600D4908600D4908600D4908600D49F3
:10160000086083490860834908600D4908600D49F6
:101610000860FFF785FF80BD1C0002400C000240FF
:101620000400024008000240100002401400024082
:10163000180002402000024024000240280002401E
:101640002C0002403400024080B586B03048027A57
:10165000417A09028918827AC07A0002801800044F
:101660004018049004980C38039003980590FFE705
:1016700005980C3026490831884246D0FFE72548B6
:1016800002784178090289188278C07800028018AF
:101690000004401805990B794A791202D2188B7907
:1016A000C9790902C9180904891800F0BDF901288F
:1016B00018D1FFE7059800900278417809028A184E
:1016C0008378C1780902C91809048918037A427A13
:1016D0001202D218837AC07A0002C018000480185F
:1016E0008847FFE7FFE70598027B417B09028918DD
:1016F000827BC07B00028018000440180290029890
:101700000C38019001980590B2E706B080BDC04644
:101710003C430020F642002083B0029001A80170F3
:1017200002983A49884204D1FFE73A48006800909D
:1017300003E0374800680090FFE702983649884286
:101740000FD1FFE70098FF218843009001A801789E
:101750000098084300900098012109060843009072
:1017600044E002982D49884211D1FFE70098FF21FB
:1017700009028843009001A80078010200980843FC
:101780000090009801214906084300902DE002983E
:101790002349884211D1FFE70098FF2109048843BB
:1017A000009001A800780104009808430090009878
:1017B000012189060843009016E0029813498842E7
:1017C00011D1FFE70098FF2109048843009001A888
:1017D00000780104009808430090009801218906D0
:1017E00008430090FFE7FFE7FFE7FFE7029807499C
:1017F000884204D1FFE70098EA49086003E00098B6
:1018000003490860FFE703B07047C0460080094005
:1018100024000240280002400000074000800740EA
:101820000000084087B000920A46009901920246E3
:101830000198069205AA107004A801700699127802
:101840009200891860310391039909680291007828
:10185000002805D0FFE7029804210843029004E025
:101860000298042188430290FFE7029803990860D8
:1018700007B0704785B00490039103994888CA88DF
:1018800010430A8910434A8910438A899201104300
:10189000CA891043098A0843019003988088002868
:1018A00006D0FFE701980121090208430190FFE7F4
:1018B00003980088029001980499029A920089186E
:1018C00008620399488AC98A084300900398808A6D
:1018D000002805D0FFE70098042108430090FFE7A7
:1018E0000398008B002805D0FFE7009810210843DB
:1018F0000090FFE700980499029A92008918086600
:1019000005B0704781B000900099002008800099D0
:101910004880009988800099C880009908810099C2
:101920004881009988810099C881009908820099AE
:101930004882009988820099C88200990120088312
:1019400001B0704782B0019000910098C0430199A6
:10195000486502B0704783B0029001A801700299F7
:10196000C96800910078002805D0FFE700980121A0
:101970000843009004E00098012188430090FFE7AD
:1019800000980299C86003B0704784B00390029138
:1019900002980068039908600298406803994860BB
:1019A000029880680399886002998889CA891043DF
:1019B0000A8A10434A8A1043898A08430190019891
:1019C0000399C8600299C88A00010A8B10434A8BA8
:1019D0001043898B0843009000980399086504B070
:1019E000704781B00090009900200860009948601D
:1019F00000998860009988810099C88100990882BF
:101A000000994882009988820099C88200990883C9
:101A1000009948830099888301B0704781B0009095
:101A20000098006801B0704784B003900291039859
:101A3000806D00900398406D00990840029908401D
:101A400000900098002804D1FFE701A90020087049
:101A500003E001A901200870FFE701A8007804B0A5
:101A6000704784B00390029101A802700399896DB8
:101A700000910078002805D0FFE7029900980843FC
:101A8000009004E00299009888430090FFE70098D6
:101A90000399886504B0704782B001900091009866
:101AA0000199086002B0704780B582B00E49086F96
:101AB0001F4A10400867FFE70B480068802100F0CC
:101AC000ABF8012801D0FFE7F6E707480190016F66
:101AD000491C0167006800F047F90198006810216F
:101AE00000F062F802B080BD5C43002080B582B097
:101AF0000E49086F0E4A10400867FFE70B48006860
:101B0000802100F089F8012801D0FFE7F6E70748B7
:101B10000190016F491C0167006800F025F90198E8
:101B20000068102100F040F802B080BDD4430020CE
:101B3000FF3F000083B0029001A801708748006851
:101B400000900298864988420FD1FFE70098012152
:101B50000906084300900098FF218843009001A8DF
:101B6000017800980843009016E002987D49884269
:101B700011D1FFE700980121490608430090009821
:101B8000FF2109028843009001A800780102009813
:101B900008430090FFE7FFE700987049086003B032
:101BA0007047C0462800024082B001900091009822
:101BB0000199486402B0704782B001906846017094
:101BC0000078002806D0FFE70199086B0122104336
:101BD000086305E00199086B024A10400863FFE7BB
:101BE00002B07047FEFF000083B00290019168468A
:101BF00002700078002806D0FFE7019A0299886CED
:101C00001043886406E0019A0299886C904380B280
:101C10008864FFE703B0704784B0009101460098E4
:101C2000039102A90880039880690988084204D0BA
:101C3000FFE701A90120087003E001A90020087056
:101C4000FFE701A8007804B0704783B002900191CB
:101C5000684602700078002806D0FFE7019A0299D2
:101C6000886B1043886305E0019A0299886B904362
:101C70008863FFE703B0704780B590B00E900D9178
:101C80000D9880890E99086301A8FFF725F901983E
:101C90000B90324800680C900E983149884207D169
:101CA000FFE70C99072001400B98C8400B900EE00D
:101CB0000E982C49884209D1FFE70C9807210902A8
:101CC0000840010A0B98C8400B90FFE7FFE70B980C
:101CD0000D9909688908FEF733FB09900998800976
:101CE000089009983F21084007900B9880000899B8
:101CF0008901079A8918FEF723FB0A900A980D9923
:101D00000968401AC001FEF71BFB069006980228DE
:101D100006DCFFE706980221C943884204DCFFE79E
:101D20000FA90020087015E008980E9948620798DE
:101D30000E9988620D998888CA8810430A891043D1
:101D4000498908430C900C980E99C8620FA901208C
:101D50000870FFE70FA8007810B080BD280002408F
:101D6000000003400080034081B0009000980068AC
:101D700080B201B0704782B001906846017000786F
:101D80000199086002B0704781B001466846017051
:101D9000007840B2002809D4FFE7684601781F2088
:101DA00001400120884002490860FFE701B0704708
:101DB00080E200E081B0014668460170007840B2E0
:101DC00000280DD4FFE7684601781F20014001205C
:101DD000884004490860BFF34F8FBFF36F8FFFE760
:101DE00001B0704780E100E081B0014668460170B3
:101DF000007840B2002809D4FFE7684601781F2028
:101E00000140012088400C490860FFE701B070479D
:101E100081B0014668460170007840B2002809D4BC
:101E2000FFE7684601781F200140012088400249F1
:101E30000860FFE701B0704700E100E070B582B0D4
:101E4000024601A802700091007840B2002817D421
:101E5000FFE701A9087840B20322D3431840184A8B
:101E60008058097849B28C07E50EFF24AC40A043A6
:101E7000009CA401E4B2AC402043194088501AE011
:101E800001A908780F24204008380322D3431840C2
:101E90000A4A8058097849B28D07EE0EFF25B540F1
:101EA000A843009DAD01EDB2B5402843214008395B
:101EB00019408850FFE702B070BDC0461CED00E03D
:101EC00000E400E083B00290019100920298009932
:101ED000020ECA71020C8A710871000A48710098DA
:101EE0000299020ECA70020C8A700870000A4870CB
:101EF00001980299020ECA71020C8A710871000AD7
:101F0000487102980199020ECA70020C8A7008701A
:101F1000000A487003B0704710B58CB02A48012100
:101F20000691FFF7DBF909A80890FEF7CBFE0698AB
:101F30000899088000240C7288708872032005902C
:101F4000487255480390FEF707FE03980699FEF77E
:101F5000B1FE06980899C20201920A800C7288703C
:101F60001A480790FEF7F8FD069A07980899D303D8
:101F700002930B800C728A70FEF7EEFD01990798B0
:101F8000FEF798FE02990798FEF78CFE0398069AD2
:101F90000899022304930B800C728A70FEF7DCFD13
:101FA00003980499FEF77EFE059B069A0798089908
:101FB0000A728C704B728A7293020B800A71FEF760
:101FC000CBFD0CB010BDC0461000800300800C405B
:101FD00080B582B00190FFF79FFF2F480221FEF7E6
:101FE00069FE0120009000F0C9F800F043F8009865
:101FF00000F0C4F80198006800681949FFF770FA0A
:10200000009800F0BBF80198006800681549FFF7D8
:1020100067FA009800F0B2F8019800680068124969
:10202000FFF75EFA009800F0A9F8019800680068D0
:102030000E49FFF755FA009800F0A0F801980068E3
:1020400000680B49FFF74CFA0A2000F083F801986A
:10205000006801F0D1FF00980199087202B080BDBC
:10206000888300008884000088850000E0820000EA
:102070000180000080B582B00748009001210191E5
:10208000FEF710FE642000F079F800980199FEF741
:1020900011FE02B080BDC04600000C4080B582B089
:1020A000FEF70AFF0120FFF773F8FFE7FFF792F84A
:1020B000012801D0FFE7F9E702200B21FEF74CFED3
:1020C0000120FEF72FFEFFE7FEF780FE012801D07A
:1020D000FFE7F9E70020FEF7C7FE01200190FEF7B9
:1020E000A7FE01980002FEF7D3FEFFF719FA02B02F
:1020F00080BD000083B0029001910020C043009099
:10210000FFE70198411E019100281CD0FFE7C1485C
:10211000006869460978029A531C0293127851406C
:10212000890041180A4A88188A5C4178090289188E
:102130008278C07800028018000440180099090ACB
:1021400048400090DDE70098C04303B07047C046A8
:1021500086D9000080B582B0019007480021FFF7C2
:102160009BFCFFE70448FFF759FC0199884201D81E
:10217000FFE7F7E702B080BD0000074080B582B0FE
:10218000019008480021FFF787FCFFE70548FFF7AB
:1021900045FC019A32215143884201D8FFE7F5E717
:1021A00002B080BD0000084080B509480121FFF75A
:1021B00095F80020C143074A1160074A116007499A
:1021C00008600749086007490860FEF75BFA80BDB0
:1021D0003001108080E200E080E100E02400044053
:1021E00024000A4024800F4070B598B0179000205A
:1021F0000A901690159014901390129011901090D0
:102200000F9084480068844940180D900D98801CF8
:10221000062100F077FA01460A98804A51810CA9FC
:102220000870FFE70CA80078052800DDF0E00BA996
:1022300000200870FFE70BA800780D990CAA12780F
:10224000520089188A78C9780902891888421DDAEB
:10225000FFE717980068006D0BA90A780C2151431D
:1022600041180CA802785200895A0EAA11800E99C2
:1022700049420BB2007882000FA98858C0188850D4
:10228000FFE70B98401C0BA90870D4E70D990CA828
:1022900008900078420089188A78C978090289185C
:1022A000820006920FA807908058FEF753F8069A0E
:1022B000079B089998500D9A0878440014196522D4
:1022C00095006219860098199B5D6355C378D37099
:1022D00083789370407850700D9800780978C840E2
:1022E000012108400990002804D0FFE7099801283F
:1022F00042D086E00D980CA909788A0083180593CE
:102300001A46523252241D5D54782402641995787D
:10231000D278120252191204121904921A46723219
:1023200072241C5D53781B021B199478D278120218
:1023300012191204D2180392490041186520820034
:102340008818895C0122805600024018FEF7D5F8F3
:102350000146039802F0DEFD0146049802F094FD68
:10236000059A69218B00D118D054020ECA70020C54
:102370008A70000A487045E00D980CA909788A0017
:10238000831802931A46523252241D5D5478240257
:1023900064199578D2781202521912041219019216
:1023A0001A46723272241C5D53781B021B199478F2
:1023B000D278120212191204D21800924900411860
:1023C000652082008818895C01228056000240182E
:1023D000FEF793F80146009802F09CFD0146019833
:1023E00002F052FD0E4902F095FD029A69218B0020
:1023F000D118D054020ECA70020C8A70000A4870BC
:1024000000E0FFE7FFE70C98401C0CA9087009E703
:1024100018B070BD58420020AE05000048010020F1
:10242000C520804010B590B00FA90B910870012114
:102430000A914805FEF752FF0A998805FEF74EFFFC
:102440000A99C805FEF74AFF0A990806FEF746FFF3
:102450000A994806FEF742FF0A994807FEF73EFF31
:102460000B980078002804D1FFE70CA95148088098
:1024700009E00FA80078012804D1FFE70CA9FF208C
:102480000880FFE7FFE70CA9099101200872887214
:10249000022048724848FEF75FFB099945480880CA
:1024A0000FA80078002804D1FFE70CA901200872CA
:1024B00009E00FA80078012804D1FFE70CA900204B
:1024C0000872FFE7FFE70CA90891012005908872C8
:1024D0000220069048723948FEF73EFB059A06989E
:1024E000089903230B800A728A7248723448079055
:1024F000FEF732FB059B069A079808990F246402A1
:102500000C800A728B724A72FEF726FB0FA80078C5
:10251000002804D1FFE70CA92B48088009E00FA888
:102520000078012804D1FFE70CA926480880FFE7BE
:10253000FFE70CA904910220019008720122029287
:102540008A7248722148FEF707FB0198029A0499A3
:10255000D3030B8008728A7248721D48FEF7FCFA9A
:102560000198029A04993F230B8008728A7248727C
:1025700018480390FEF7F0FA019A029B0398049919
:10258000C0240C800A728B724A72FEF7E5FA019A37
:10259000029B039804991C020C808B700A728B7248
:1025A00000228A714B72CA71CA700A71FEF7D4FA9E
:1025B00010B010BDFFFF000000800A4000000B407B
:1025C00000800B40F8FF0000E0FF000000800E409C
:1025D00000000C4000800C4080B588B0014607A880
:1025E000019001700078FFF71DFF01218807FEF7B9
:1025F00075FE04A8FEF793FA01980078002804D12C
:10260000FFE704A90220087009E007A80078012864
:1026100004D1FFE704A901200870FFE7FFE704A841
:10262000FEF71EFA14491548086007A8007800282C
:1026300006D1FFE7104908682022904308600BE0AC
:1026400007A80078012806D1FFE70B490868202277
:1026500010430860FFE7FFE702A80090FEF750FA7A
:102660000098032181700922C2704170012101711B
:10267000FEF726FA08B080BD54000F40018000002C
:1026800084B000200290FFE70298FF2834DCFFE7C7
:102690000298039000200190FFE70198072817DCBB
:1026A000FFE703A80078C007002806D0FFE70398DB
:1026B000400813494840009003E003984008009008
:1026C000FFE700980390FFE70198401C0190E4E7C2
:1026D0000398CB490968029A92008A18074BD118CF
:1026E000D054020ECA70020C8A70000A4870FFE7CC
:1026F0000298401C0290C7E704B0704786D90000DA
:102700002083B8ED85B00490039102A900200880D1
:102710000090FFE700980399884215D2FFE70498DC
:1027200000998900415A01A80180008802A90988FE
:10273000884204DDFFE7019802A90880FFE7FFE770
:102740000098401C0090E5E702A8008805B070479B
:10275000F0B593B0AA48A8490160A84A01210A919E
:1027600009051160016812910168C8311191016871
:10277000FA4A8918109101685322920089180F9122
:102780000068F749FDF7A1FD0A99129B00200D9002
:10279000587020221A70129CE1704C23A370129B77
:1027A00058711871129CE07103230B93A371129B53
:1027B00059721872129BD8729872129D07246C730A
:1027C00052232B73129BD8739A73129B04225A7450
:1027D0001874129BD8749974129B5875FE21197540
:1027E000129BD8750A219975129905234B760876A4
:1027F000129BD87602219976129B5C777221197709
:102800001299C8770820887711990878F026304007
:10281000401C0870119908780F2528402030087056
:102820001199C8780290030488780002C318DA4F1F
:102830003B4006200990487002981B0A8B70C870B4
:1028400011994B78039388780002C018CB781B0449
:10285000C318D24803400A98049340021B180398F7
:10286000487004981B0A8B70000CC8701198059072
:10287000437881780691C0780004872109040840D4
:102880000A99490540180599079006988870079895
:102890004B70000CC8701199C87808904B788878F4
:1028A000887008984B70802318430D9BC87011994D
:1028B00088793040887111998879284088711199F8
:1028C00008793040001D087111990879284030308E
:1028D0000871119948793040801C487111984179EC
:1028E0002940103141710A981199CB738B734B7346
:1028F00008730F98AA49FDF7EDFC099A0A980F99F9
:102900008302C85C3040401CC8540F99C85C284002
:102910002030C8540F9EA3480C90331899780804AF
:102920005D782D022D180C983D4032542D0A5D70B3
:1029300099700F9F3B183E5C587800028019997877
:102940000D044519984805400B9880022D180C98E5
:102950003E542D0A5D7099700F9F3B1899785D78F1
:102960003E5C3E540D985D702140A03199700F9CE3
:102970008E4D631966216155D970997059700F9CFD
:1029800041210D016119C8236355C87088704870D2
:102990000F9C874D61196355C870887048700F9BF4
:1029A0008321CC0019191A5548700F9B814C1919B5
:1029B0001A5548700F9A804BD118FF20D054487098
:1029C0000F9A7E4BD118EE20D05448700F9A2120D8
:1029D0004301D118DD20D05448700F987849401831
:1029E0004021FDF772FC0D980EA90870FFE70EA8B4
:1029F0000078072806DDB5E0000020500004102014
:102A0000584200200EAA01921078012383401099A9
:102A100008789843087010981178490043180020EE
:102A2000D8700A219970109913785B00C918C8747E
:102A30008874109913785B00CC1823462233222522
:102A4000FF216155597016781C231C4674435D495B
:102A50000C59109DB600AE19354652355227F45523
:102A6000260EEE70260CAE70240A6C7016781C468A
:102A700074430C196468109DB600AE193546723562
:102A80007227F455260EEE70260CAE70240A6C7078
:102A900016781C4674430C19A468109DB600AE1934
:102AA000354692359227F455260EEE70260CAE7000
:102AB000240A6C7016781C4674430C19E468109D47
:102AC000B600AE193546B235B227F455260EEE7073
:102AD000260CAE70240A6C7016781C4674430C19D0
:102AE0002469109DB600AE193546D235D227F4556B
:102AF000260EEE70260CAE70240A6C7016781C46FA
:102B000074430C196469109DB600AE193546F23550
:102B1000F227F455260EEE70260CAE70240A6C7067
:102B200014786343C9188969109BA4001C19892370
:102B30005D00631961550C0EDC700C0C9C70090A69
:102B40005970109912788918992252008854FFE719
:102B50000E98401C0EA9087049E7C046AE0500005B
:102B600086610100109899214900401820210091A8
:102B7000FDF7ABFB00991098A92252008018FDF7D1
:102B8000A4FB00991098B92252008018FDF79DFB14
:102B9000FFF776FD13B0F0BD00FEFF00FF01F80067
:102BA0009450000001040000FFC1FF000404000075
:102BB000140400001A0400001C0400001E0400009D
:102BC000220400000800002081B000900098010E4F
:102BD000C170010C8170010A417000700098010EF3
:102BE000C171010C8171010A4171007101B070471E
:102BF000B0B588B0124801210191FEF76FFB05A81E
:102C00000490FEF75FF80198049980220A8000245E
:102C10000C728870887203200290487209480390F1
:102C2000FDF79AFF019B029A039804991D020D80FB
:102C30000C728B708B724A72FDF78EFF08B0B0BDBC
:102C40001000000100000C4010B582B0019000910E
:102C50000198009A137951790902CB189479D179A6
:102C6000090209190904C918FFF72CF902B010BDAF
:102C700010B586B005AC00942070049103920293C5
:102C8000142000F069F9009901900398019A030E4D
:102C9000D372030C93721072000A50720298019A58
:102CA000030ED371030C93711071000A50710498D4
:102CB000019A030ED370030C93701070000A5070C9
:102CC00001980C300978CA0009498918FFF7BCFF40
:102CD00006B010BD80B582B0014601A80170007831
:102CE000C10003484018FFF76FFF02B080BDC04627
:102CF0003C430020F0B595B0002011901490FFF7F0
:102D0000CDF9FFF751FA1198FFF766FCFFF720FDA8
:102D1000FFF76EFF012709973846FFF7DBFF119A8F
:102D20007D49022638463346FFF7A2FF119A7B49B8
:102D30003B043846FFF79CFF7948069079490160CB
:102D40003902016449220F21019181544821042252
:102D500042544A2380220592C2544C231022C2546A
:102D60004D228654462281524E22082103918154DD
:102D7000052101716C490A9109686C4A891801653D
:102D800001F090F9019A119969480290C173817319
:102D9000272343730273C172817241728F220272C0
:102DA00040220492C27007220D928270417001701D
:102DB00001F05EFB039A049B11985E491291C8735F
:102DC0008873C3244C734F250D73C87288720B240B
:102DD0004C723F20087211991298C3708270417032
:102DE000017001F045FB049B0599119A5248079028
:102DF000C273827342730473C272827242729122EE
:102E00000272242403220C920255119C02462432A1
:102E10005470262284540246263251703222845441
:102E20000246323254703E2286540D9A06463E3691
:102E3000F470B7707470C37082704170047001F0E8
:102E400017FB069B07990A983C4A0892136013687F
:102E50005C55516000685B21090140180625294630
:102E6000FFF750FC01460898418104730472FFF794
:102E7000AFF8099A0C990A9B31480B90314E0660C5
:102E8000027550228554E1250F956D0285655C25FC
:102E90000E95602747535E2510954453C453622610
:102EA00084530C02642544531868274940180B9931
:102EB000C8661198086748671298486023481390BD
:102EC000234901600C98139908750D991398815442
:102ED0000E9A0F98139900038865109913988752DA
:102EE000119A42521299C253825344531B68194C8F
:102EF0001B19C3660267426741604B21890001F0DC
:102F0000E1FD139801F032FC1398FDF74BFDFFE74C
:102F10000E4800F093FEFBE72D410000F93700005A
:102F20005C4200200000044058420020865D010001
:102F3000B042002004041020F64200204801002086
:102F40005C4300200000034086DD0000D4430020E5
:102F500000800340861D010085B00390039880091E
:102F6000401C029000200190FFE701980299401850
:102F70003F2843D8FFE700200090FFE70098029920
:102F8000884213D2FFE7204800680199009A891807
:102F9000405C002805D0FFE7009901984018019097
:102FA00004E0FFE70098401C0090E7E700980299D2
:102FB00088421ED1FFE700200090FFE700980299A9
:102FC00088420CD2FFE7104801680198009A8218E5
:102FD00001208854FFE70098401C0090EEE70A4863
:102FE00000680199890140180121090240180490E4
:102FF00007E0FFE70198401C0190B6E7002004902D
:10300000FFE7049805B0704704000020F0B5624F58
:10301000BD44624969440C91614A6A441070614838
:103020000268C8328A6102685F4BD2184A6102683E
:103030005E4BD2180A6102682123DB01D218CA60F4
:1030400002685B4BD2188A6002685A4BD2184A60F9
:103050000068594A80180860002010900FA9088065
:103060000EA908800DA90870FFE70C990DA800783B
:1030700089688979884200DB89E30C9800690DA989
:103080000A7809215143405C0B90052800D963E37D
:103090000B98810001A040588746C046B53000001B
:1030A000C531000035330000093400005D350000F3
:1030B000353600000C9A3B490868109BC0183F4DFC
:1030C0000A95401956690DAB1C78092217466743CB
:1030D0000C9CF619070E3772070CF7717071000A15
:1030E000B0710868109E80194619A4692778475561
:1030F0000C98E778F770A778B77064787470109CB4
:10310000241D10940C68109EA41966198069077913
:1031100067550C9C407970701098801C109008685E
:10312000109E80194519A669254FF419F65D0A9F6E
:10313000C6550C98E678EE70A678AE7064786C7020
:10314000109C241D10940968109C0E19F4198569AF
:103150009120C10068186D5C0C99F555C578E57033
:103160008578A570407860701098001D10904C69AB
:10317000187815464543002060554C691E78154661
:1031800075436419A070607049691B785A438918A7
:1031900008711320C870E0E2A4F9FFFF3C060000AC
:1031A00058060000584200208710000083070000E6
:1031B0007C0700007E1900007A10000084190000CE
:1031C00084040000FC48684400780990012804D079
:1031D000FFE70998022837D06DE0F8480068F84901
:1031E000405CC00901282DD1FFE7F4480068F5498B
:1031F000405CC006C00F002824D1FFE70C9880690E
:10320000027B417B09028918827BC07B0002801807
:1032100000044018092815D0FFE70C98E7490C680E
:10322000E84BE25C01252A43E2540A68D15C7F2422
:103230002140D15481690020C873887348730420E9
:10324000087300E09EE237E0DC480068DC49405C3F
:10325000C00901282DD1FFE7D8480068D949405C52
:103260008006C00F002824D1FFE70C988069027BFC
:10327000417B09028918827BC07B00028018000410
:103280004018042815D0FFE70C98CC490C68CD4BAA
:10329000E25C01252A43E2540A68D15C8024214380
:1032A000D15481690020C87388734873092008735A
:1032B00000E067E200E0FFE70C99C0480268109B5D
:1032C000D618C14AB4188D699123DF00EB19ED5D62
:1032D000B554DD78E5709D78A5705B786370006803
:1032E000109BC01882184C690DAB1E78092005464A
:1032F00075436419150E2572150CE5716271120A79
:10330000A271109A121D10924C691A780546554305
:10331000012262554A691D7804466C431419002243
:10332000A270627049691C7803466343C9180A7128
:10333000C87012E20C9803690DAA0692157809214B
:1033400007910C466C431B195D799C792402641922
:10335000DD791B7A1B025B191B041B191C785B7837
:103360001B021C190FAB1C800069127851434018D6
:103370004279817909028918C279007A000280189D
:10338000000440188178C078000240180EAA089204
:1033900010808A4C2168109808188B4D40191B88A2
:1033A000C9181288FCF734FF0C99069B079A0898F5
:1033B0002468109EA41964194D691F7816467E432F
:1033C000AD19260E2E72260CEE716C71240AAC71AA
:1033D00004881098001910904C69187815464543D8
:1033E0000220605548691D7814466C43041900207A
:1033F000A07060700E98401D49691B785A43891867
:10340000020A0A71C870A8E1FA4868440078059079
:10341000012804D0FFE70598022814D027E0F148DE
:1034200001680846D430D4228A5C417809028918A0
:103430008278C0780002801800044018042801D067
:10344000FFE79FE114E0E74801680846D430D42242
:103450008A5C4178090289188278C0780002801855
:1034600000044018092801D0FFE78BE100E0FFE7E6
:103470000C9908690DAD03952C78092304931A461D
:10348000624380184479827912021219C479007A51
:1034900000020019000480180278407800028018A9
:1034A0000FAE308008692C781A4662438018447940
:1034B000827912021219C479007A000200190004FC
:1034C00080188278C078000280180EAA1080C54C3F
:1034D00020683688801909692D786B43C9184D79A1
:1034E0008B791B025B19CD79097A09024919090404
:1034F000C918091D1288FCF78BFE0C99039B049ACE
:103500002068109D4619B94D032070552468109EFF
:10351000A41964194D691F7816467E43AD19260E0D
:103520002E72260CEE716C71240AAC71109C641C16
:1035300010944C691E7815467543605548691D788E
:1035400014466C4304190020A070607049691B7810
:103550005A43891808710620C870FEE0A5486844DF
:1035600000780290012804D0FFE70298022811D0C9
:103570002CE00C988069027B417B09028918827BD0
:10358000C07B0002801800044018042801D0FFE727
:10359000F8E01CE00C988069027B417B09028918E5
:1035A000827BC07B0002801800044018092801D0EB
:1035B000FFE7E7E00BE0C046580600005842002055
:1035C00085D9000084D9000084190000FFE7FFF7C7
:1035D000BFF80C99834A1068109BC418834B0020D5
:1035E000E0541268109C1219D4184D690DAB1F7865
:1035F000092216467E43AD19260E2E72260CEE7158
:103600006C71240AAC71109C641C10944C691E7877
:103610001546754360554C691E7815467543641907
:10362000A070607049691B785A4389180871062098
:10363000C87092E06F48684400780190012804D077
:10364000FFE70198022811D021E00C988069027BE5
:10365000417B09028918827BC07B0002801800042C
:103660004018042801D0FFE78CE011E00C98806935
:10367000027B417B09028918827BC07B0002801893
:1036800000044018092801D0FFE77BE000E0FFE7D5
:103690000C98806980790007002801D0FFE75CE082
:1036A0000C9908690DAB1D78092214466C4300196A
:1036B0004579847924026419C579007A0002401999
:1036C0000004001904784078000200190FAC208033
:1036D00008691D7814466C430019457984792402E1
:1036E0006419C579007A0002401900040019847831
:1036F000C078000200190EAC20803A4C2068109D62
:1037000046193A4D052070552468109EA419641975
:103710004D691F7816467E43AD19260E2E72260C73
:10372000EE716C71240AAC71109C641C10944C698D
:103730001E7815467543605548691D7814466C43DC
:1037400004190020A070607049691B785A438918D9
:1037500008710620C87000E0FFE70C9841690DAAC7
:10376000137809225A438918CA78097909028A18F4
:10377000C168CB7808790002C0188018C870000AA8
:103780000871FFE70D98401C0DA908706DE40C99B5
:1037900088680078CA68107088688078CA68507035
:1037A00088684078CA689070CA68D3781079000237
:1037B000C0180A30D070000A1071CA680948006841
:1037C000094BC05C507188688079CA6890710A683A
:1037D0001079527949684A7108710020044FBD443C
:1037E000F0BDC0465842002084D900008419000072
:1037F0005C0600005806000080B584B00390324893
:10380000007A01284ED1FFE72F48029040680278E5
:103810004178090289188278C07800028018000473
:10382000401802210022FEF71CF90298017B491C76
:103830000173007B072804D1FFE7234901200873A7
:10384000FFE7214800904068027841780902891812
:103850008278C07800028018000440180021FEF72A
:103860001BF900984068027841780902891882782B
:10387000C078000280180004401802210191FEF770
:1038800061F8009801994068037842781202D218D2
:103890008378C0780002C018000480180122FEF767
:1038A000E0F8FFE708484068027841780902891883
:1038B0008278C078000280180004401801210904B1
:1038C000FEF740F804B080BD48010020B0B590B0CC
:1038D0000E900DA80170CB480168CB4A89180C9155
:1038E000016889180B910168C84A89180A91006813
:1038F000C74940180990002008900C98C549FCF76A
:10390000E4FCFFE70E9801F0D7F8800B00280BD1FC
:10391000FFE70E98C16E019101F0CEF801460198C3
:10392000405C05A9087005E00E98C06E007805A9F6
:103930000870FFE70898002809D0FFE705A800787D
:10394000552804D0FFE70E9800F096FEB2E00E98DE
:10395000AC490968B04A8A18012100F081FF01468C
:1039600006A80170007800280CD0FFE707A8012105
:10397000017000780DA9097800F0ACF907980FA93B
:1039800008703AE10B999F480068A34A805C087070
:103990000B98007855280CD0FFE707A80421017088
:1039A00000780DA9097800F095F907980FA908701B
:1039B00023E10E9893490968984A8A18062100F075
:1039C0004FFF014606A80170007800280CD0FFE7E1
:1039D00007A80121017000780DA9097800F07AF993
:1039E00007980FA9087008E10B98864909688A4A68
:1039F00089180722FCF70CFC0B98C17800790002AB
:103A00004018874988420CDBFFE707A804210170B2
:103A100000780DA9097800F05DF907980FA90870E2
:103A2000EBE00E980B99CA78097909028918091FE9
:103A3000744A12687B4BD21800F012FF014606A8A8
:103A40000170007800280CD0FFE707A80121017061
:103A500000780DA9097800F03DF907980FA90870C2
:103A6000CBE00C9870494018664909680B9AD378E6
:103A700012791202D21889186C4A89180622FCF7AA
:103A8000C7FB0A98017940790002401868498842CA
:103A90000CD0FFE707A80421017000780DA9097870
:103AA00000F018F907980FA90870A6E00898401CC4
:103AB000089027E7534801680B9840795D4A88547D
:103AC0000DA8007801F0BCF804A90020088003903C
:103AD000FFE703980B998979884248D2FFE7099854
:103AE000039A09210091514340184649096804AAE4
:103AF000128889184B4A89180522FCF789FB00991E
:103B00000998039A51434018C1780079000240187F
:103B10004349884207DBFFE707A90420087007989C
:103B20000FA9087069E03748006804A90A8880185E
:103B3000414A8018099B039D092214466C431B19B6
:103B4000040E1C72040CDC715871000A98710998FB
:103B5000039B5A438018C2780079000282180498A7
:103B600080180880FFE70398401C0390B1E72548C0
:103B700000682A4940180B99CA78097909028918FE
:103B8000091FFEF7B7FA029002980A990B784A7853
:103B90001202D2188B78C9780902C9180904891849
:103BA00088420CD0FFE707A80221017000780DA918
:103BB000097800F08FF807980FA908701DE00B989E
:103BC000407810490968CE22895C0F221140884252
:103BD00007D0FFE707A90320087007980FA908700E
:103BE0000BE007A80021017000780DA9097800F00A
:103BF00071F807980FA90870FFE70FA8007810B0B8
:103C0000B0BDC046584200207C0700007A1000007A
:103C10008307000008D20000845900008559000085
:103C2000014000008B590000FE080000815900008F
:103C3000AAAA000085D900009059000080B584B080
:103C40000290029800682049884204D1FFE701A948
:103C5000012008700AE0029800681C49884204D1DB
:103C6000FFE701A902200870FFE7FFE7029801A91A
:103C70000978FFF72BFE002804D0FFE703A90120F5
:103C800008701DE01248FEF7AFFA01A80078FFF7B0
:103C9000BDF9002804D0FFE703A9012008700FE058
:103CA000029801A9097800F029FC002804D0FFE758
:103CB00003A90120087003E003A900200870FFE7B2
:103CC00003A8007804B080BD0000034000800340DA
:103CD00048010020B0B589B0024608A8027007AAC2
:103CE0001170BF490968C831069100780590042811
:103CF00000D971E10598810001A040588746C0466F
:103D0000153D0000193E0000A33E0000D93F000011
:103D1000A33E0000B4498020086001200002B149A0
:103D2000086007A800780490012804D0FFE70498F1
:103D3000022835D06EE0069903910A7D487D000285
:103D400082188B7DC87D0002C01800048018401CBA
:103D5000020ECA75020C8A750875000A4875069924
:103D60000020C8768876487608769D480168A04A83
:103D7000885CEF2318408854069B19463231322460
:103D80001A5D4878FE252A401A554870069B194648
:103D900032311A5D4878FD252A401A5548703AE0BC
:103DA000069A114624312423D45C48780002041971
:103DB0008D78C8780002401900040019401CD054C6
:103DC000020ECA70020C8A70000A4870069A1146E8
:103DD000283128230020D054C8708870487080484B
:103DE0000168834A885CDF2318408854069B194683
:103DF000343134241A5D4878FE252A401A5548701B
:103E0000069B194634311A5D4878FD252A401A551B
:103E1000487000E0FFE7E0E0724980200860012080
:103E200000027149086007A800780290012804D0B8
:103E3000FFE70298022819D031E0F54801686C4A82
:103E4000885C102318438854069B1946323132246B
:103E50001A5D487802252A431A55487006990020B1
:103E6000C873887348730520087319E0E84801682F
:103E70005F4A885C202318438854069B19463431D6
:103E800034241A5D487802252A431A554870069949
:103E90000020C873887348730520087300E0FFE7AB
:103EA0009BE0504980200860012000024E490860D4
:103EB00007A800780190012804D0FFE701980228A4
:103EC00042D087E0069900910A7E487E000282185F
:103ED0008B7EC87E0002C01800048018401C020EB1
:103EE000CA76020C8A760876000A4876069A117E0F
:103EF000507E00024118937ED07E0002C01800045C
:103F000040183C4BD118D25C497809028918884284
:103F100019D3FFE7BE480168354A885C102318436F
:103F20008854069B1946323132241A5D487801259F
:103F30002A431A55487006990020C873887348733D
:103F400005200873FFE746E0069B1A462832282121
:103F50005C5C5078000204199578D0780002401912
:103F600000040019401C5854030ED370030C9370C6
:103F7000000A5070069A10462830535C41780902B6
:103F8000C9188378C0780002C01800044018174B85
:103F9000D118D25C497809028918884219D3FFE701
:103FA0009B480168124A885C202318438854069B6A
:103FB0001946343134241A5D487801252A431A55AC
:103FC000487006990020C8738873487305200873E9
:103FD000FFE700E0FFE700E0FFE709B0B0BDC04643
:103FE0005842002024000C4020000C409E04000099
:103FF00084D900009C04000080B582B00190FFE7E6
:10400000019800680421FDF71BFA012806D1FFE79B
:1040100001980068806869460880F1E702B080BDB9
:1040200010B58AB01D4801210191FDF757F907A885
:104030000690FCF747FE01980699022203920A7245
:104040008872032048721020088000200490887035
:1040500013480590FCF780FD049A059806990823FB
:104060000B808A70FCF778FD019A05980699042365
:1040700002930B808A70FCF76FFD02990598FCF79C
:1040800011FE039B049A0598069920240C800B725C
:104090008A70FCF761FD0AB010BDC0461000000137
:1040A00000000C4080B588B00790FFF7B9FF079873
:1040B000006C01210391FDF711F904A80190FDF7AF
:1040C00018FA0798006800210291FDF74DF901994F
:1040D00007984922805C487107984822805C0871E3
:1040E00007984A22805C887107984C22805C08728D
:1040F00007984D22805C487207984622805A488073
:1041000007980068FDF7CCF907984E214056FDF757
:1041100051FE029A079800680421FDF7AAF9039955
:1041200007980068FDF774F908B080BD80B58AB0C3
:1041300009903648007A012856D1FFE73348406895
:1041400002784178090289188278C07800028018C4
:1041500000044018022100220392FDF782FC03981C
:1041600004A90870FFE704A8007807280FDCFFE720
:10417000264800680068806804A909784A0005A9F3
:104180008852FFE70498401C04A90870EBE71F4819
:10419000007B062824D1FFE71D4800681D490191D6
:1041A0004F220292895C490040181B49401805A91A
:1041B0000C22FCF72DF80199029A885C801D885426
:1041C00012490868805C4A8906215143884206DB0F
:1041D000FFE70E4801684F2200208854FFE7FFE701
:1041E0000A4900200873FFE70848406802784178D0
:1041F000090289188278C0780002801800044018EB
:104200000221FDF79FFB0AB080BDC0464801002097
:10421000584200205C420020865D010080B58EB0CF
:104220000D90012102918803FDF758F805A801902F
:10423000FDF7D7FB01990D98037B427B1202D21840
:10424000837BC07B0002C0180004801807900D9883
:10425000037A427A1202D218837AC07A0002C01816
:10426000000480180690A2480390FDF78EFB039887
:1042700000210491FDF750FA02990398FDF76BFBBA
:1042800003980499FDF708FC0EB080BD10B596B0F8
:10429000159001210391C803FDF720F80DA80090A7
:1042A000FDF79FFB00991598037A427A1202D21803
:1042B000837AC07A0002C018000480180E90159806
:1042C000037B427B1202D218837BC07B0002C018A2
:1042D000000480180F901598827CC07C0002801822
:1042E000C8811598027C407C00028018888115984E
:1042F000027D407D0002801808821598027E407E73
:104300000002801888821598827DC07D0002801886
:1043100048821598827EC07E00028018C882159857
:10432000027F407F0002801808831598827FC07F3B
:10433000000280184883159A104620302023D25C52
:1043400040780002801888836A480490FDF71DFBBE
:1043500006A80190FDF7D6FA01990498159B1A4614
:10436000243224241B5D52781202D2180A80159B35
:104370001A46263226241B5D52781202D2184A8031
:10438000159B1A46323232241B5D52781202D21823
:10439000CA81FDF76FFA0199039A04980978FDF72D
:1043A00041FA039A0498159B19463E313E241C5D40
:1043B0004B781B021B198C78C9780902091909046A
:1043C000C918FDF74EFB049802210291FDF7BAFAD5
:1043D0000299049800220592FDF743FB0F20FDF798
:1043E00017FD04980599FDF797F903990498FDF7CF
:1043F000B2FA04980599FDF74FFB16B010BDC04600
:1044000080B58EB00D90012102910804FCF766FF83
:1044100005A80190FDF7E5FA01990D98037B427B11
:104420001202D218837BC07B0002C01800048018DF
:1044300007900D98037A427A1202D218837AC07AD2
:104440000002C0180004801806902B480390FDF766
:104450009CFA039800210491FDF75EF902990398F4
:10446000FDF779FA03980499FDF716FB0EB080BDAD
:1044700080B582B0019001980278417809028918CC
:104480008278C078000280180004401818498842D9
:1044900004D1FFE70198FFF7C1FE27E001980278F9
:1044A0004178090289188278C078000280180004D7
:1044B00040181049884204D1FFE70198FFF7E6FE53
:1044C00013E0019802784178090289188278C0784F
:1044D00000028018000440180749884204D1FFE711
:1044E0000198FFF78DFFFFE7FFE7FFE702B080BD10
:1044F00000000740008007400000084010B58EB063
:104500000C900BA80170544801682122D20189182F
:1045100009910168514BC9180891016889180791E0
:1045200001684F4A8918069100684E494018099958
:104530000722FBF76DFE05A9002008800490FFE725
:10454000049807998979884241D2FFE7424801904F
:10455000006805A903910988401844494018089942
:10456000049B092202925A4389180522FBF750FE48
:10457000029A039901980068098840183D4940183B
:104580000899049B5A438A18537991790902CB18E8
:10459000D479117A090209190904C918D378127952
:1045A0001202D218521FFBF733FE029A03990898A1
:1045B000049B5A438018C27800790002821805983B
:1045C00080180880FFE70498401C0490B8E7224850
:1045D00000900068244940180799CA7809790902AF
:1045E0008918091FFDF786FD01460098069A0B0EF3
:1045F000D3700B0C93700B0A53701170006805A9EF
:1046000009884018194940180999194A8918062239
:10461000FBF7FEFD00990C980968124A8918079A61
:10462000D37812791202D218D21C00F057FA00285F
:1046300007D0FFE70AA9012008700A980DA90870A1
:1046400006E00AA9002008700A980DA90870FFE783
:104650000DA800780EB010BD584200208710000051
:104660007E19000084990000859900008B99000054
:10467000FE0800009099000080B582B0019001987A
:10468000C06E01218903FBF720FE02B080BD00004F
:1046900010B58EB0324801210391FCF71FFE0BA824
:1046A0000190FCF70FFB01990398087203244C72E8
:1046B000887200220792CA7008714A718A71CA71A1
:1046C00008220A80887027480090FCF745FA009875
:1046D0000199079A10230B808A70FCF73DFA019923
:1046E0000398079A830202930B800A7288701E480F
:1046F0000590FCF731FA02990598079AFCF7FEFA43
:1047000008A80490FCF7DEFA039A04990598079B21
:104710000A724C728A72CB700A714B718B71CB71B9
:1047200053030B808A70FCF717FA039B04990598D2
:10473000079A9B030B808A70FCF70EFA039A049980
:104740000598079B140306940C800B728A70FCF783
:1047500003FA05980699079AFCF7D0FA0EB010BD37
:104760001000800100800B4000000C4080B58AB032
:104770000890FFF78DFF02A90020087008980068D4
:104780003549884204D1FFE70899402048650AE08E
:10479000089800683149884204D1FFE708998020D1
:1047A0004865FFE7FFE70898406D0121FCF796FD9B
:1047B000089900208866089908686822895CFDF7D6
:1047C000B9F9089850214056FDF70EFB0898806D06
:1047D000039008985C21405A03A9888008985E22BB
:1047E000805AC88008986022805A088108986222FE
:1047F000805A488108986422805A88810898006805
:10480000FDF73AFA014602A801700078012807D0A6
:10481000FFE707A901200870079809A9087016E0AA
:1048200008985021405600210191FDF707FB089898
:104830000068102101220092FDF707FA00990898FC
:104840000068FDF7B9F9019809A90870FFE709A800
:1048500000780AB080BDC0460000034000800340DD
:1048600080B588B0069005910492002002900598CA
:10487000F24988420BD3FFE703A904200870069988
:10488000486F401C4867039807A908700EE1069816
:10489000406F05994018E949884200D2A8E006987F
:1048A000007A012862D1FFE70698406802784178D3
:1048B000090289188278C078000280180004401824
:1048C0000021FDF7E9F8FFE70699086F496F401AE4
:1048D00000281FD4FFE70698406802784178090253
:1048E00089188278C0780002801800044018FDF70B
:1048F00095F8029002980699CA683221514388427D
:1049000007D3FFE703A903200870039807A90870DD
:10491000CCE0D9E7FFE70698416F006F401A01210C
:1049200089034018059988421FD2FFE7069840681E
:1049300002784178090289188278C07800028018CC
:1049400000044018FDF76AF8029002980699CA68B8
:1049500032215143884207D3FFE703A9032008709F
:10496000039807A90870A1E0D5E7FFE70699086F4B
:10497000496F401A002807D4FFE703A904200870F4
:10498000039807A9087091E00699086F496F401ACB
:104990000121890340180599884207D2FFE703A93E
:1049A00004200870039807A908707FE00498069A0D
:1049B000D16E536FC918012292030092D21AFBF7ED
:1049C00027FC009A049806994B6FC01A8018C96E8C
:1049D000059AD218374B0193D218FBF719FC019AAC
:1049E0000699486F059BC01880184867FFE759E093
:1049F0000698007A012838D1FFE7069840680278C7
:104A00004178090289188278C07800028018000471
:104A100040180021FDF740F8FFE70699086F496F3D
:104A2000401A059988421FD2FFE70698406802782D
:104A30004178090289188278C07800028018000441
:104A40004018FCF7EBFF029002980699CA683221E1
:104A50005143884207D3FFE703A903200870039856
:104A600007A9087022E0D8E7FFE70699086F496FA9
:104A7000401A0599884207D2FFE703A9042008706D
:104A8000039807A9087011E00498069AD16E526F36
:104A90008918059AFBF7BCFB0699486F059A8018A0
:104AA0004867FFE707A900200870FFE707A800781C
:104AB00008B080BD00C0FFFF81B000900098406F3B
:104AC00001B0704782B001900091019901200872F5
:104AD00000980199C86002B07047000080B588B0A6
:104AE00006900591049200200290069800685049B3
:104AF000884206D1FFE7012291024F48FCF7FEF8F9
:104B00000CE0069800684B49884206D1FFE7012275
:104B100011034948FCF7F2F8FFE7FFE70698407AEF
:104B2000012810D1FFE70698406802784178090211
:104B300089188278C078000280180004401800218B
:104B4000FCF7AAFFFFE704983C49884207D3FFE738
:104B500003A904200870039807A9087063E00020E7
:104B60000190FFE70198049988423AD2FFE706983E
:104B700000680599019A895CFDF7FDF8FFE7069842
:104B800000682021FDF748F8012825D1FFE70698A5
:104B9000407A01281FD1FFE70698406802784178E3
:104BA000090289188278C078000280180004401831
:104BB000FCF734FF0290029806990A6932215143AA
:104BC000884207D3FFE703A902200870039807A9CA
:104BD000087028E0FFE7D2E7FFE70198401C01904A
:104BE000C0E70A20FDF7B6FA069800681049884227
:104BF00007D1FFE7012081020F480022FCF77EF871
:104C00000DE0069800680B49884207D1FFE70120B4
:104C1000010309480022FCF771F8FFE7FFE707A945
:104C200000200870FFE707A8007808B080BDC046E4
:104C3000000003400080034000000C4001400000E1
:104C4000B0B587B006A908708C480168C8310591D5
:104C500000688B49405C012108400490002805D081
:104C6000FFE70498012800D182E003E106A800785C
:104C70000390012804D0FFE7039802283AD075E09A
:104C80007E4800687E49405CC00900281DD1FFE7CE
:104C90000598027B417B09028918827BC07B000258
:104CA00080180004401804280FD1FFE70599002060
:104CB000C873887348730520087370480168714A87
:104CC000885CFE2318408854FFE7059902910A7C0E
:104CD000487C000282188B7CC87C0002C01800044B
:104CE0008018401C020ECA74020C8A740874000AF0
:104CF00048743CE0614800686149405CC009002894
:104D00001DD1FFE70598027B417B09028918827B50
:104D1000C07B000280180004401809280FD1FFE76B
:104D200005990020C8738873487305200873534899
:104D30000168544A885CFE2318408854FFE7059AAE
:104D4000114620312023D45C4878000204198D7864
:104D5000C8780002401900040019401CD054020E0B
:104D6000CA70020C8A70000A487000E0FFE782E017
:104D700006A800780190012804D0FFE701980228D6
:104D80003AD075E03D4800683D49405CC0090028C4
:104D90001DD1FFE70598027B417B09028918827BC0
:104DA000C07B000280180004401804280FD1FFE7E0
:104DB00005990020C87388734873052008732F482D
:104DC0000168304A885CFE2318408854FFE7059943
:104DD00000910A7F487F000282188B7FC87F000203
:104DE000C01800048018401C020ECA77020C8A7793
:104DF0000877000A48773CE0204800682049405C7A
:104E0000C00900281DD1FFE70598027B417B0902FC
:104E10008918827BC07B0002801800044018092892
:104E20000FD1FFE705990020C873887348730520E8
:104E3000087312480168134A885CFE23184088549E
:104E4000FFE7059A11462C312C23D45C48780002E8
:104E500004198D78C8780002401900040019401C1C
:104E6000D054020ECA70020C8A70000A487000E02A
:104E7000FFE700E0FFE707B0B0BDC04658420020A2
:104E800085D9000084D9000070B50125ED07040024
:104E90004C4020D4441A01D2001B0919C60D4B0006
:104EA000F2B2FF2A29D01B0E2CD000020C0228439C
:104EB0002C43D31ADC40051910D2280A02D3401C17
:104EC0006D0611D0761EF6058019FF2A00DA70BD36
:104ED000C00DC00570BD694000F07AF8012005439F
:104EE000C541521C761CE8E764089C40C90161403A
:104EF0008900E7D10124A043E4E71B0E440200D05F
:104F0000034870BD002AFCD1C00FC00770BD00BFB0
:104F10000000C07F70B5420064414B005C41120E3E
:104F200039D01B0E38D0FF2A3CD0FF2B3AD0D218F4
:104F30007F3A40024902400A490A4518ED0106003D
:104F40004E43000A090A48430104731A4019190C18
:104F50004318990F04D05B08012149075B1A521CC2
:104F6000D80904D3401CF50301D19D0607D0FF2AC0
:104F700008D2D50506D0E4072043401970BD0125AD
:104F8000A843F4E7002A01DCE00770BD2402FF20FB
:104F90002043C00570BD1B0EFF2A03D0FF2B01D09C
:104FA000E00770BDFF2636064500B54206D84D0025
:104FB000B54203D8D218FF2A00D0E7E7004870BDF9
:104FC0000000C07F70B50125ED0704004C4022D4DD
:104FD000441A02D26C40001B0919C60D4B00F2B2F4
:104FE000FF2A4BD01B0E50D000020C02A8432C43CA
:104FF000D31ADC40051B05D5AD0019D36D08761E0C
:10500000521E37D0F605280A01D2801970BD7041B2
:105010006D0603D070BD6940FFF73CFF9C4009025C
:105020006140490001D0401E70BD0124A04370BD05
:105030006D081DD001202B0C01D12D0410302B0E3A
:1050400001D12D0208302B0F01D12D01001DAB0F16
:1050500001D1AD00801CEB0F01D16D00401C361A50
:10506000121A6D00680AF5054019012A02DB70BDAD
:10507000002070BDC036300AC00770BD1B0E440250
:1050800001D1FF2B00D1024870BD002AF0D070BDC5
:105090000000C07F4D504100D850000000000020AB
:1050A000E80000000401000000540000000010208F
:1050B0000004000076050000C0510000E800002058
:1050C000685300002001000010540000000410206C
:1050D000501000002001000000127A00580100204A
:1050E000751A9E407A162539000000000000000065
:1050F000000000000000000000000000CCA99D405E
:10510000F55E2539000000000000000000000000EE
:10511000000000000000000000000000000000008F
:10512000000000000000000000000000000000007F
:10513000000000000000000000000000000000006F
:10514000000000000000000000000000000000005F
:1054000001FF01FF01FF01FF91000000000000000B
:04000005000000C136
:00000001FF
